:0200000460009A
:1000000018F09FE518F09FE518F09FE518F09FE5C0
:1000100018F09FE500F020E314F09FE514F09FE551
:10002000400000603C0000603C0000603C0000605C
:0C0030003C0000603C0000603C000060F0
:04003C00FEFFFFEADA
:1000400000000FE11F00C0E31B1080E301F02FE16F
:1000500054D09FE507D0CDE3171080E301F02FE1E6
:1000600048D09FE507D0CDE3121080E301F02FE1E7
:100070003CD09FE507D0CDE3111080E301F02FE1E4
:1000800030D09FE507D0CDE3131080E301F02FE1DE
:1000900024D09FE507D0CDE31F1080E301F02FE1CE
:1000A00018D09FE507D0CDE3050000EA00009000DE
:1000B0000000900000009000000090000000900000
:0400C00000009200AA
:1000C40014409FE5000094E5044094E230FF2FE1E2
:1000D400FBFFFFEA0A0000FAFEFFFFEA6801006086
:0200E400704763
:1000E60083B000B582B00DF10C0C8CE80E0003A9AC
:1000F600019101A900F021F802B05DF804EB03B00C
:02010600704740
:1001080080B582B0002001900090009863280ADC36
:10011800009940F25410C6F20000FFF7E0FF009883
:1001280001300090F1E7009801300090012000288C
:08013800F9D1019802B080BD6D
:1001400003B581B001A9402000F002F803B000BD62
:04015000FFF7C8BF2E
:1001540048656C6C6F20576F726C64202564210AAB
:01016400009A
:04016800D80000605B
:040000056000004057
:00000001FF
